:100000000C94C0020C9473140C944C140C94E802DD
:100010000C94E8020C94E8020C949A140C94E802F4
:100020000C94E8020C94E8020C94E8020C94E802A8
:100030000C94E8020C94E8020C94E8020C94E80298
:100040000C9402140C94E8020C94D0130C94AA1390
:100050000C94E8020C94E8020C94E8020C94E80278
:100060000C94E8020C94E80200407A10F35A00A0C5
:10007000724E18090010A5D4E80000E87648170071
:1000800000E40B54020000CA9A3B000000E1F505B1
:10009000000080969800000040420F000000A086FB
:1000A00001000000102700000000E803000000002D
:1000B0006400000000000A000000000001000000D1
:1000C00000002C76D888DC674F0823DFC1DFAE59EB
:1000D000E1B1B796E5E3E453C63AE651997696E87E
:1000E000E6C28426EB898C9B62ED407C6FFCEFBC02
:1000F0009C9F40F2BAA56FA5F490055A2AF75C932D
:100100006B6CF9676DC11BFCE0E40D47FEF520E662
:10011000B500D0ED902E0300943577050080841E45
:10012000080000204E0A000000C80C333333330FA0
:10013000986E12831141EF8D2114893BE65516CF3D
:10014000FEE6DB18D1844B381BF77C1D901DA4BB49
:10015000E424203284725E228100C9F124ECA1E5FE
:100160003D27303B3235353B25753B303B25753BD4
:100170000025753B25753B25753B25753B25753B56
:1001800025730A00000000002300260029005453B4
:100190004D3A494E49540A002154534D3A494E496B
:1001A000543A545350204641494C0A0054534D3A56
:1001B000494E49543A4757204D4F44450A0054533D
:1001C0004D3A494E49543A545350204F4B0A00542B
:1001D000534D3A52454144593A49443D25752C50B6
:1001E00041523D25752C4449533D25750A00545311
:1001F0004D3A52454144593A4E5744205245510ACE
:10020000005453463A5444493A54534C0A00545308
:100210004D3A4641494C3A4449530A0054534D3AE9
:100220004641494C3A434E543D25750A0054534DBE
:100230003A4641494C3A52452D494E49540A002507
:10024000735453463A4D53473A53454E442C257503
:100250002D25752D25752D25752C733D25752C6344
:100260003D25752C743D25752C70743D25752C6CC1
:100270003D25752C73673D25752C66743D25752CC1
:1002800073743D25733A25730A00215453463A523C
:1002900054453A257520554E4B4E4F574E0A002176
:1002A0005453463A5254453A4650415220414354E1
:1002B0004956450A00215453463A534E443A544E47
:1002C000520A005453463A504E473A53454E442C36
:1002D000544F3D25750A00215453463A504E473A33
:1002E0004143544956450A005453463A434B553A04
:1002F0004641494C0A005453463A434B553A444709
:1003000057432C4F3D25752C4E3D25750A005453FF
:10031000463A434B553A4F4B0A005453463A434BE7
:10032000553A4F4B2C464354524C0A005453463ACC
:100330004D53473A52454C204D53470A00545346BB
:100340003A4D53473A52454C2050784E472C48502E
:100350003D25750A005453463A4D53473A52435689
:100360002043420A005453463A4D53473A465744B5
:10037000204243204D53470A00215453463A4D53DF
:10038000473A47574C204641494C0A005453463A95
:100390004D53473A47574C204F4B0A005453463A67
:1003A0004D53473A46504152205245512C49443D05
:1003B00025750A005453463A4D53473A42430A00C2
:1003C0005453463A4D53473A4543484F0A00215447
:1003D00053463A4D53473A504F4E472052454356A5
:1003E0002C494E4143544956450A005453463A4D10
:1003F00053473A504F4E4720524543562C48503DA4
:1004000025750A005453463A4D53473A50494E47D2
:1004100045442C49443D25752C48503D25750A001E
:100420005453463A4D53473A4543484F205245515D
:100430000A005453463A4D53473A524541442C25FD
:10044000752D25752D25752C733D25752C633D2542
:10045000752C743D25752C70743D25752C6C3D25CF
:10046000752C73673D25753A25730A002154534650
:100470003A53414E3A4641494C0A005453463A5386
:10048000414E3A4F4B0A004D434F3A5245473A4E80
:100490004F54204E45454445440A005453463A4380
:1004A00052543A4F4B0A005453463A5755523A4D1C
:1004B000533D256C750A004D434F3A42474E3A4929
:1004C0004E4954204F4B2C5453503D25750A004D36
:1004D000434F3A42474E3A5354500A004D434F3A25
:1004E00042474E3A4246520A004D434F3A42474E27
:1004F0003A494E49542047572C43503D52524E479B
:10050000412D2D2D2C46513D25752C52454C3D2518
:10051000752C5645523D322E332E320A00214D4362
:100520004F3A50524F3A52433D25750A00000000A1
:1005300000240027002A0000000000250028002BCE
:10054000000404040404040404020202020202037C
:100550000303030303010204081020408001020486
:100560000810200102040810200000000800020109
:100570000000030407000000000000000000DE147B
:1005800011241FBECFEFD8E0DEBFCDBF11E0A0E049
:10059000B1E0ECEBFDE302C005900D92AE37B10780
:1005A000D9F724E0AEE7B1E001C01D92AA34B2074A
:1005B000E1F712E0C0ECD2E004C02197FE010E94F6
:1005C000BE1ECF3BD107C9F70E942A150C94DC1E32
:1005D0000C940000FC01842F118262839FEF9683AC
:1005E00025834481487F482B477E4483CF0108956B
:1005F000AF92BF92CF92DF92EF92FF920F931F9331
:10060000CF93DF936C017B018B01040F151FEB016E
:100610005E01AE18BF08C017D10759F06991D60125
:10062000ED91FC910190F081E02DC6010995892B97
:1006300079F7C501DF91CF911F910F91FF90EF9056
:10064000DF90CF90BF90AF900895FC01538D448D03
:10065000252F30E0842F90E0821B930B541710F06D
:10066000CF96089501970895FC01918D828D98177A
:1006700061F0A28DAE0FBF2FB11D5D968C91928D52
:100680009F5F9F73928F90E008958FEF9FEF089583
:10069000FC01918D828D981731F0828DE80FF11D4C
:1006A000858D90E008958FEF9FEF0895FC01918D67
:1006B000228D892F90E0805C9F4F821B91098F7360
:1006C000992708958DE393E00E94560321E0892B3A
:1006D00009F420E0822F0895FC01A48DA80FB92F02
:1006E000B11DA35ABF4F2C91848D90E001968F735A
:1006F0009927848FA689B7892C93A089B1898C9179
:10070000837080648C93938D848D981306C00288C7
:10071000F389E02D80818F7D80830895EF92FF9291
:100720000F931F93CF93DF93EC0181E0888F9B8D14
:100730008C8D98131AC0E889F989808185FF15C0CE
:100740009FB7F894EE89FF896083E889F9898081F1
:100750008370806480839FBF81E090E0DF91CF91C0
:100760001F910F91FF90EF900895F62E0B8D10E0E2
:100770000F5F1F4F0F731127E02E8C8D8E110CC051
:100780000FB607FCFACFE889F989808185FFF5CF9C
:10079000CE010E946C03F1CFEB8DEC0FFD2FF11D0C
:1007A000E35AFF4FF0829FB7F8940B8FEA89FB89D9
:1007B00080818062CFCFCF93DF93EC01888D882337
:1007C000B9F0AA89BB89E889F9898C9185FD03C0B4
:1007D000808186FD0DC00FB607FCF7CF8C9185FF99
:1007E000F2CF808185FFEDCFCE010E946C03E9CF6F
:1007F000DF91CF91089580E090E0892B29F00E944D
:10080000620381110C9400000895833081F028F474
:10081000813099F08230A9F008958730A9F08830AE
:10082000C9F08430B1F4809180008F7D03C0809145
:1008300080008F7780938000089584B58F7784BD82
:10084000089584B58F7DFBCF8091B0008F77809322
:10085000B00008958091B0008F7DF9CF1F93CF93A2
:10086000DF93282F30E0F901E759FA4F8491F9011D
:10087000EB5AFA4FD491F901EF5BFA4FC491CC23B4
:10088000A9F0162F81110E940504EC2FF0E0EE0F65
:10089000FF1FE95CFA4FA591B4918FB7F894EC91E2
:1008A000111108C0D095DE23DC938FBFDF91CF916B
:1008B0001F910895DE2BF8CFCF93DF9390E0FC01DA
:1008C000EB5AFA4F24918F5B9A4FFC018491882355
:1008D000D1F090E0880F991FFC01E35DFA4FA591DC
:1008E000B491FC01E95CFA4FC591D49161110EC03D
:1008F0009FB7F8948C91E22FE0958E238C932881FA
:10090000E223E8839FBFDF91CF9108958FB7F894DA
:10091000EC91E22BEC938FBFF6CF2FB7F894609158
:1009200035037091360380913703909138032FBFC0
:1009300008950895089508950895FC0183818770AE
:100940008860838384818F71806284836783CF0111
:100950000895FC0183818695869586958A3108F0F5
:1009600089E10895E091B702F091B802309721F043
:100970000280F381E02D099408959C018091B702D3
:100980009091B80282179307F1F09091C1029F7184
:100990009093C1023093B8022093B702E091B7025E
:1009A000F091B802309721F00190F081E02D099587
:1009B0000E948D046093B9027093BA028093BB02C7
:1009C0009093BC0208958091C102805E8093C10221
:1009D000E5CF80912F0290913002DC01ED91FC91E6
:1009E0000484F585E02D0994F89420911C042330AB
:1009F00071F420912D02222351F0DC01ED91FC9144
:100A00000488F589E02D61E0099581E00895209141
:100A10001C04233019F4789480E00895DC01ED91F2
:100A2000FC910288F389E02D0995F6CF08953F9255
:100A30004F925F926F927F928F929F92AF92BF92EE
:100A4000CF92DF92EF92FF920F931F93CF93DF939A
:100A5000EC01162F5A01922E802E312CCE2CD12C47
:100A6000F12CE12CE881F9810190F081E02D01E089
:100A7000292DA501612FCE0109950E948D042B011E
:100A80003C010E948D0464197509860997096C154B
:100A90007D058E059F0528F5E881F9810480F581A3
:100AA000E02DCE010995882361F390912C0219174E
:100AB00011F01F3F31F790912B02992311F3DF9131
:100AC000CF911F910F91FF90EF90DF90CF90BF904B
:100AD000AF909F908F907F906F905F904F903F90DE
:100AE00008953394831408F0BDCF80E0E8CF8EBD25
:100AF00000000DB407FEFDCF8EB508950F931F9330
:100B0000CF93DF93EC01062F142FE881F981008C3D
:100B1000F18DE02D0995802F80680E947705812F47
:100B20000E947705E881F981028CF38DE02DCE01DA
:100B3000DF91CF911F910F9109941F93CF93DF9372
:100B4000EC01162F45E561114DE56AE5CE010E94E5
:100B50007E0540E711114CE76CE5CE01DF91CF91A6
:100B60001F910C947E051F93CF93DF93EC01162FFA
:100B7000E881F981008CF18DE02D0995812F0E948B
:100B8000770580E00E947705182FE881F981028CB3
:100B9000F38DE02DCE010995812FDF91CF911F912B
:100BA0000895CF9363E08DE194E00E94B305C82FD0
:100BB00064E08DE194E00E94B30591E0C23009F059
:100BC00090E0C1E0803409F0C0E0C92365E08DE128
:100BD00094E00E94B30591E0833009F090E0C923CE
:100BE00066E08DE194E00E94B30591E0833309F063
:100BF00090E0892F8C23CF910895CF93DF93EC0160
:100C000068874AE161114FE063E1CE010E947E05F1
:100C10008885882369F061E1CE010E94B3058F7158
:100C2000482F406661E1CE01DF91CF910C947E05A3
:100C30004F814068F7CFCF93DF93EC01109275029C
:100C400010922C021092360210922D02109237024E
:100C500010922B0210922A021092290268E20E943E
:100C6000B30582FF0AC06DE3CE010E94B305482F91
:100C700044606DE3CE010E947E0540E465E2CE0152
:100C80000E947E05E881F9810488F589E02D63E002
:100C9000CE01DF91CF910994CF93DF93EC016032C5
:100CA00008F06FE16F838885882311F066956F8364
:100CB00061E1CE010E94B305807E4F81482B61E146
:100CC000CE01DF91CF910C947E051F93CF93DF93DC
:100CD00020911C04261779F0162FEC0161E00E9488
:100CE000B305482F437E1230D1F148F41123C1F1EE
:100CF00044601130A9F1DF91CF911F910895133015
:100D0000F9F01430C1F74C6061E0CE010E947E051D
:100D10008885882341F0E881F9810688F789E02DEC
:100D200061E0CE01099580911C04811106C067E243
:100D3000CE010E94B30587FFF6CF10931C04DBCFD2
:100D4000406161E0CE010E947E058885882359F3C9
:100D5000E881F9810688F789E02D60E0E2CF4860FC
:100D600061E0CE010E947E05DECF009769F0FC01B4
:100D700001900020E9F73197AF01481B590BBC01E6
:100D80008DE393E00C94F80290E080E00895809168
:100D9000FF03829586958770813019F48091020453
:100DA0000895811105C082E094E00E942B180895F7
:100DB00080E008950F931F93CF93DF93EC018B0195
:100DC000E0E06115710549F0FB0101900020E9F7B1
:100DD0003197E61BEA3108F0E9E18B81877098E0F2
:100DE000E99FF0011124E82BEB838C818F718C83B8
:100DF000CE010E94A904482F50E0B801CE01079609
:100E00000E94CD1ECE010E94A9048C0F9D2F911D22
:100E1000FC011782CE01DF91CF911F910F910895B0
:100E2000EF92FF920F931F93CF93DF93EC017B011F
:100E30008C81829586958770A1F4CE010E94A904C9
:100E4000482F50E0BE01695F7F4FC7010E94CD1E51
:100E5000CE010E94A9048E0D9F2D911DFC011082D0
:100E600007C0813069F48F814AE090E00E949718B2
:100E7000C701DF91CF911F910F91FF90EF900895DF
:100E8000823021F44AE08F819885F0CF833031F4AD
:100E90004AE08F8198850E94F018EACF843049F4A7
:100EA0006F81788589859A852AE0A7010E94A2181A
:100EB000DFCF853049F46F81788589859A852AE06E
:100EC000A7010E94CE18D4CF10E0873069F42B859B
:100ED000293008F028E06F81788589859A85870117
:100EE00042E00E940D18C4CFCE010E94A904181739
:100EF00060F5A12FB0E09D01220F331FF701E20F33
:100F0000F31FAC0FBD1F17968C911797082E000C7E
:100F1000990B44E0959587954A95E1F78F708A3053
:100F200080F4805D80832F5F3F4FF701E20FF31F56
:100F300017968C918F708A3030F4805D80831F5FAC
:100F4000D3CF895CEFCF895CF9CFE82FF0E0EE0FCB
:100F5000FF1FEE0DFF1D83CFCF93DF93EC0161E008
:100F60008A810E942E0489858CBD8A858DBD7894E6
:100F7000DF91CF910895FC01F8948CB581878DB5F0
:100F800082878CB5837F8CBD8CB58F7D8CBD8CB5F5
:100F90008C7F8CBD8DB58E7F8DBD60E082810C9481
:100FA0002E04CF92DF92EF92FF920F931F93CF9375
:100FB000DF93EC01F62ED42EC52E122FE881F98195
:100FC0000488F589E02D61E0099567E2CE010E9471
:100FD000B30587FFFACF40E065E2CE010E947E05AF
:100FE0001E3308F01DE3E11027C0002339F100E4AF
:100FF000E881F981008CF18DE02DCE01099580E822
:101000000E94770583E0810F0E9477058F2D0E9453
:1010100077058D810E947705802F0E9477050D2D21
:10102000ED2CFC2C8E2D801B811750F4F701819143
:101030007F010E947705F6CF00E8DACF00E0D8CF35
:10104000E881F981028CF38DE02DCE010995E881CC
:10105000F9810488F589E02D64E0CE0109950E94AC
:101060008D046B017C012B8130E0F901E759FA4FC7
:101070008491F901EB5AFA4F1491F901EF5BFA4FA1
:10108000049101111BC00E948D046C197D098E0909
:101090009F09683E73408105910528F3E881F98135
:1010A0000488F589E02D61E0CE01DF91CF911F9199
:1010B0000F91FF90EF90DF90CF90099481110E94E3
:1010C0000504E02FF0E0EE0FFF1FEC57FE4FA59157
:1010D000B491EC911E23B9F2E1CF0F931F930E94BC
:1010E0008D040091B1021091B2022091B3023091AF
:1010F000B402601B710B820B930B6B34710581057D
:10110000910508F43CC00E948D046093B102709375
:10111000B2028093B3029093B4028091CD028823EF
:1011200019F081508093CD028091CD02837061E0EF
:1011300009F060E086E00E942E048091B6028823C8
:1011400019F081508093B6028091B602837061E0FD
:1011500009F060E085E00E942E048091B5028823AA
:1011600019F081508093B5028091B502837061E0DF
:1011700009F060E084E01F910F910C942E041F9100
:101180000F910895A8950C946D089091B502911156
:1011900004C0880F880F8093B5020C946D08CF931C
:1011A000DF9320911C04233021F080E0DF91CF9168
:1011B000089520912D022111F8CFEC0164E20E94E4
:1011C000B30590E09195819591098C349F4F6CF710
:1011D000E881F9810488F589E02D61E0CE01099567
:1011E00081E0E4CF4F925F926F927F92AF92BF9275
:1011F000CF92DF92EF92FF920F931F93CF93DF93E3
:10120000EC015B01F42E1092370210912C02C09079
:101210002902D0902A026DE30E94B305482F446052
:101220006DE3CE010E947E050E948D042B013C01DE
:10123000CE010E94CF08811115C00E948D0464194F
:10124000750986099709683E73408105910550F438
:10125000E881F9810480F581E02DCE0109950E9495
:10126000C208E6CF10932C02E881F9810088F18949
:10127000E02DEE24E39400E02F2DA501612FCE0197
:101280000995D0922A02C0922902DF91CF911F9135
:101290000F91FF90EF90DF90CF90BF90AF907F9035
:1012A0006F905F904F9008958F929F92AF92BF92F0
:1012B000CF92DF92EF92FF920F931F93CF93DF9322
:1012C000EC01162F6A01F22E6DE30E94B305482F40
:1012D00044606DE3CE010E947E050E948D044B01A7
:1012E0005C01CE010E94CF08811113C00E948D04C1
:1012F000681979098A099B09683E7340810591053F
:1013000040F4E881F9810480F581E02DCE01099552
:10131000E8CFE881F9810088F189E02DE12C2F2DBB
:10132000A601612FCE010995DF91CF911F910F91F9
:10133000FF90EF90DF90CF90BF90AF909F908F90F5
:101340000895EF92FF921F93CF93DF93EC0180916A
:101350001C04833009F098C068E2CE010E94B305F6
:1013600082FF92C0E881F9810488F589E02D61E06F
:10137000CE010995E881F981008CF18DE02DCE0137
:10138000099580E00E94770580E00E9477058093B0
:101390002D0280912D02833408F046C080912D02E9
:1013A00080932D0280E00E947705809336028E8123
:1013B000811109C0809136029D81981721F080919A
:1013C00036028F3F99F580912D02833078F180911C
:1013D0002D0283508093750280E00E9477058093F0
:1013E0002C0280E00E947705982F907890932B0232
:1013F000982F907490933702E881F9810684F785DD
:10140000E02D682FCE01099510E080917502181724
:1014100010F5E12EF12C80E00E947705F701E85CE1
:10142000FD4F80831F5FF1CF82E4BACF10922D026F
:10143000E881F981028CF38DE02DCE010995E881D8
:10144000F9810288F389E02DCE01DF91CF911F91C0
:10145000FF90EF900994809175028D3330F4E09104
:101460007502F0E0E85CFD4F1082E881F981028CA2
:10147000F38DE02DCE010995E881F9810488F58985
:10148000E02D63E0CE01099564E2CE010E94B30530
:1014900090E09195819591099595879590932A0271
:1014A00080932902DF91CF911F91FF90EF900895D3
:1014B000CF93DF93EC018091B602811103C084E0E9
:1014C0008093B6020E946D0866EF71E0CE010E9423
:1014D00010072C819F938F938D811F928F9324FBF4
:1014E000882780F91F928F9327701F922F938E81E8
:1014F0001F928F9389811F928F9381E791E09F9331
:101500008F931F9288E78F938EE791E09F938F933D
:101510000E940A198EE791E00E94B5068DB79EB72A
:1015200042960FB6F8949EBF0FBE8DBF81E0DF914B
:10153000CF9108959091CC02981739F1682F80933C
:10154000CC021092DB031092DC038FEF8093E00358
:1015500085E08093DF038091DE03807E836080934B
:10156000DE038AED93E00E949D040E94580A809158
:10157000CC02882351F00E948D046093C8027093BE
:10158000C9028093CA029093CB0208958F929F92D2
:10159000AF92BF92EF92FF920F931F93CF93DF937F
:1015A000CDB7DEB7C959D1090FB6F894DEBF0FBE6B
:1015B000CDBF1F9289E08F931F9283E08F9382E6C5
:1015C00091E09F938F931F9288E78F93CE010196AE
:1015D0007C019F938F930E940A19C7010E94B50650
:1015E0000E948D049B01AC01C756DF4F1882C95978
:1015F000D0400FB6F894DEBF0FBECDBF09E710E0B4
:101600000C0F1D1F005E1F4F8AE0882E912CA12C0D
:10161000B12CCA01B901A50194010E949C1E605D14
:10162000F80162938F01211531054105510589F7B4
:10163000309761F001900020E9F73197AF01401B2E
:10164000510BB8018DE393E00E94F80285E491E02C
:101650000E94B5069E0128553F4FCA55DF4F48816D
:101660005981C65AD04068E770E0C7010E943A1914
:101670008AE0E8968FAFE897E9961FAEE997C70131
:101680000E94B5068DE393E00E94DB03C756DF4F4F
:101690000FB6F894DEBF0FBECDBFDF91CF911F9183
:1016A0000F91FF90EF90BF90AF909F908F90089513
:1016B0008091C70281FD10C081608093C70287E8D6
:1016C00094E09F938F930E94C60A8091C702826024
:1016D0008093C7020F900F9008959F92AF92BF9290
:1016E000CF92DF92EF92FF920F931F93CF93DF93EE
:1016F000EC010A818091C10280FF19C00F3F09F4FB
:10170000CFC08FE992E09F938F930E94C60A0F90FB
:101710000F9000E0802FDF91CF911F910F91FF90EC
:10172000EF90DF90CF90BF90AF909F900895109171
:1017300077020023C1F00F3F09F4B2C0802F90E080
:1017400003960E943B1E182F8F3F69F41F920F9340
:101750008AE892E09F938F930E94C60A0F900F90A1
:101760000F900F90102F8091760288838B8140E23A
:10177000D42E82FD06C0CE010E94A90457E0D52ECA
:10178000D80E80917902FF24F39480FD03C01F3F9F
:1017900009F0F12C8091B602811103C084E080939E
:1017A000B6020E946D0800E0209769F0FF2009F45E
:1017B00079C0E12C00E02D2DAE01612F8DE194E088
:1017C0000E9417050F2D8C818770833039F48D812D
:1017D00027E4A22E21E0B22E813131F06AE772E0D7
:1017E000CE010E9410075C0192E5C92E91E0D92E2E
:1017F000002321F08FE4C82E81E0D82E8091C20210
:101800008F70982EEB80E2FAEE24E0F8CE010E9471
:10181000A9049C81B92FB295B695B770AD81977028
:10182000FE81EA81412F50E07881698127E531E02E
:10183000F11006C029E531E0002311F026E431E083
:10184000BF92AF92DF92CF921F929F921F92EF9220
:101850001F928F931F92BF931F92AF931F929F93DC
:101860001F92FF931F92EF935F934F931F927F936B
:101870001F926F933F932F938FE392E09F938F93E9
:101880000E94C60A8DB79EB74E960FB6F8949EBFBB
:101890000FBE8DBF011112C082E00E94C5083ACF71
:1018A0001FEF61CF38ECE32E05E02D2DAE01612F47
:1018B0008DE194E00E941705082F85CF01E02ACF23
:1018C0002091C10222FD0C946D0B85EB92E09F9359
:1018D0008F930E94C60A0F900F9080E00895FC013C
:1018E0002281211102C00C94580A0C94600C22E150
:1018F00050E040E060E08AED93E00E94EA026BE590
:1019000071E00E94DA060C946F0CCF92DF92EF9296
:10191000FF92CF93DF9390910004C091FC03C1111B
:10192000B2C09D3059F488E198E00FB6F894A895BC
:10193000809360000FBE90936000FFCF9B31A1F0B9
:101940009630D1F49091020481E0992319F09D34EE
:1019500009F080E08093C60241E050E063E071E06E
:1019600086EC92E00E94431E81E0DF91CF91FF90D0
:10197000EF90DF90CF900895933119F40E94770C87
:10198000F3CF923159F50E948D04C090B902D090E6
:10199000BA02E090BB02F090BC029B01AC012C1992
:1019A0003D094E095F0969017A0126E143E050E0F3
:1019B00060E08AED93E00E94EA02FC018381877077
:1019C0008062838384818F71806A8483C782D0869A
:1019D000E186F286CF010E946F0CC6CF923021F2D1
:1019E000913011F580E090E0892B09F4BDCF809112
:1019F000FF03829586958770853059F460910204C3
:101A00007091030480910404909105040E940000E9
:101A1000ABCF811105C082E094E00E944918F6CF57
:101A200060E070E0CB01F2CF9A3039F5809102048A
:101A3000833409F099CFC3E0D0E06FEFCE010E946C
:101A4000531E2196C33031E0D307B9F78BE994E0F8
:101A50009F938F930E94C60A2AE043E050E060E023
:101A60008AED93E00E94EA026FE471E00E94DA06D8
:101A70000E946F0C0F900F9077CF81E09C3109F49A
:101A800074CF80E072CF9A31E1F70E94C706D82F59
:101A90002BE143E050E06C2F8AED93E00E94EA02D4
:101AA00061E0D23008F460E00E949D0494CF3F9240
:101AB0004F925F926F927F928F929F92AF92BF925E
:101AC000CF92DF92EF92FF920F931F93CF93DF930A
:101AD000CDB7DEB7A1970FB6F894DEBF0FBECDBF6E
:101AE0008091C10284FF48C30E948D040091AD0221
:101AF0001091AE022091AF023091B002601B710BC9
:101B0000820B930B613A7B4B8D409105D0F00E9484
:101B10008D046093AD027093AE028093AF029093F8
:101B2000B0020E94D105811156C08CE694E09F93CB
:101B30008F930E94C60A87E091E00E94BD040F9037
:101B40000F9086E0382E90E0C92E90E0D92E8DE1DE
:101B500094E00E94F404882309F40EC33A943320DD
:101B600009F40AC38091CD02811103C084E08093FF
:101B7000CD020E946D088091750210E2803210F44F
:101B800010917502412F50E068E372E08BEF93E013
:101B90000E94C41E80913702882359F0809136023A
:101BA0008F3F39F040E066E471E08DE194E00E94FF
:101BB000F20881E2EBEFF3E0DE01119601900D9265
:101BC0008A95E1F70C81802F8370823059F08AE08A
:101BD0000E94C508BCCF8BE794E09F938F930E942F
:101BE000C60AADCFCE0101960E94A90402FD89E18B
:101BF000895F181711F089E0EBCF8BEF93E00E941B
:101C0000A904482E8091FF038770782E109100045C
:101C10000091FC035090FB036090FD0383E0781279
:101C200004C087E491E0113131F06AE772E08BEF94
:101C300093E00E941007E42CF12C802E912C9F93AE
:101C40008F938091FE0382FB882780F91F928F93E8
:101C50001F924F928091FF038295869587701F9205
:101C60008F931F921F931F927F92809101041F9266
:101C70008F931F926F921F925F921F920F9382E336
:101C800094E09F938F930E94C60A0FB6F894DEBF2C
:101C90000FBECDBF80917602081729F0652DC401D3
:101CA00003960E94531E8091C20280688093C202F4
:101CB000809176026812D9C0F701E550FC4F178277
:101CC0008091FF0383FF21C080E294E09F938F9374
:101CD0000E94C60A81E2EBEFF3E0AAEDB3E00190C7
:101CE0000D928A95E1F78091DE03877E8061809373
:101CF000DE03809176028093DB030093DC038AEDA0
:101D000093E00E94600C0F900F908091FF0384FD80
:101D1000A3C093E0791293C0809100048F3039F111
:101D200018F0823108F413CF183109F043C00E9433
:101D3000C7061F928F931F920F9384E094E09F93A6
:101D40008F930E94C60A29E143E050E0602F8AED9C
:101D500093E00E94EA0261E00E949D040E946D0BE4
:101D60000F900F900F900F900F900F90F0CE2FE0EC
:101D700043E050E06091FC038BEF93E00E94EA02A5
:101D800066E471E00E94DA068091FE03877080614C
:101D90008093FE038091FF038F71806C8093FF031B
:101DA00081E080930204109203048BEF93E00E9481
:101DB0006F0CCDCE193109F58091C10283FF14C09B
:101DC000877F8093C1020E94C7068093C3021F923F
:101DD0008F938BEE93E09F938F930E94C60A0F9090
:101DE0000F900F900F90B3CE8EEC93E09F938F9354
:101DF0000E94C60A0F900F90AACE1E3109F4A7CEFA
:101E00001D31C9F42FE143E050E060E08AED93E03A
:101E10000E94EA02FC018381877080618383848150
:101E20008F718064848380E09FEF90878783CF01E8
:101E30000E946D0B8CCE0E94850C811188CE8BEF99
:101E400093E00E94580AC114D10409F480CE8BEFAC
:101E500093E00E9400007BCE80EC93E09F938F93F1
:101E60000E94C60A0F900F90EACF2FEF621258C15E
:101E700084EB93E09F938F930E94C60A0F900F907C
:101E800083E078121EC18091C10282FF17C1173012
:101E900009F014C180917702081709F458CE1F92F7
:101EA0000F938CE993E09F938F930E94C60A0E9440
:101EB0008D048090BD029090BE02A090BF02B090B1
:101EC000C002681979098A099B090F900F900F9039
:101ED0000F906031774281059105C8F58AE193E062
:101EE0009F938F930E94C60A0F900F900E948D04BB
:101EF0006093BD027093BE028093BF029093C002B4
:101F00008CE893E09F938F930E94C60A0E948D04F1
:101F10002B013C0123E05222662477240E94A41462
:101F20004B015C010F900F90411451046104710446
:101F300009F0B8C028E043E050E0602F8AED93E05C
:101F40000E94EA02609178020E949D0471CF809104
:101F5000C10283FB112710F983FD60C01F921F92FD
:101F600083EC92E09F938F930E94C60A0F900F908C
:101F70000F900F9080917602811119C01092C302C8
:101F80008091C102877F8093C1021091C3021F3FDD
:101F900009F04DC088EE92E09F938F930E94C60A8D
:101FA00089E793E09F938F930E94C60A18CF809190
:101FB000C10288608093C1026092C30228E143E0BD
:101FC00050E060E08AED93E00E94EA0261E00E9446
:101FD0009D040E946D0B0E948D042B013C01109208
:101FE00000040E948D046419750986099709603DF3
:101FF00077408105910520F61111C2CF0E94570D3F
:102000000E94C2088091FF038770833051F711E06E
:1020100080910004893129F310E0E3CF87ED92E04D
:102020009F938F930E94C60A0F900F90B3CF0E9488
:102030008D046093BD027093BE028093BF029093A3
:10204000C0028EE093E09F938F930E94C60A809116
:1020500078020F900F90811709F448CF1F921F93B9
:102060001F928F9386EF92E09F938F930E94C60AF0
:10207000109378020F900F900F900F900F900F9089
:1020800035CF81E0481A51086108710898EE890E31
:1020900093E0991EA11CB11C411451046104710408
:1020A00009F442CF0E94A414681979098A099B098E
:1020B000683E73408105910520F736CF183009F44A
:1020C00046CD80917702581214C08091760208178D
:1020D00081F08091C10282FF0CC085E693E09F935E
:1020E0008F930E94C60A8BEF93E00E946D0B0F90B6
:1020F0000F9083E0781609F42ACD8BEF93E00E94CD
:10210000580AC114D10409F422CD85E593E09F93C8
:102110008F930E94C60A8BEF93E00E9400006ACE64
:102120008091C10282FF13CD83E078121AC018514A
:102130001230B8F40E94C706182F1F928F938DE3B8
:1021400093E09F938F930E94C60A0F900F900F9079
:102150000F901E3F31F061E0610F8BEF93E00E9422
:102160009D048CE293E09F938F930E94C60A8BEFAD
:1021700093E00E946D0B3ECEA1960FB6F894DEBFA1
:102180000FBECDBFDF91CF911F910F91FF90EF90C8
:10219000DF90CF90BF90AF909F908F907F906F9087
:1021A0005F904F903F9008950F931F930E948D046E
:1021B0000091B9021091BA022091BB023091BC0289
:1021C000601B710B820B930B2091C202207720378A
:1021D000B9F000E117E220E030E006171707280702
:1021E000390798F48DE292E09F938F930E94C60A7C
:1021F0000F900F908BE091E01F910F910C94BD0414
:1022000000E61AEE20E030E0E8CF1F910F9108952C
:102210008091C202982F9077903759F0982F92951D
:102220009F709F5F97709295907F8F78892B809396
:10223000C2028091C202829587701F928F938CE1B7
:1022400092E09F938F930E94C60A8091C1028B7F78
:102250008F7E8093C10284E00E94C5088EE092E0E8
:102260009F938F930E94C60A81E092E09F938F9381
:102270000E94C60A8DB79EB708960FB6F8949EBF07
:102280000FBE8DBF60E08DE194E00C946506CF92A7
:10229000DF92EF92FF92C0903202D0903302E09032
:1022A0003402F0903502C114D104E104F10421F5A7
:1022B0000E948D0460933202709333028093340243
:1022C000909335028EEE91E09F938F930E94C60A01
:1022D00024E143E050E06FEF8AED93E00E94EA02D0
:1022E00066E471E00E94DA060F900F90FF90EF9085
:1022F000DF90CF900C946D0B0E948D046C197D09BA
:102300008E099F0961387F448241910588F6FF90CC
:10231000EF90DF90CF900895809178021F928F9375
:10232000809177021F928F93809176021F928F93F4
:102330008FEC91E09F938F930E94C60A8091C10217
:1023400084608093C1028091C20280788093C2022F
:10235000E091C402F091C5028DB79EB708960FB602
:10236000F8949EBF0FBE8DBF309709F00994089571
:10237000CF92DF92EF92FF920F931F93CF93DF9351
:10238000CDB7DEB7AE970FB6F894DEBF0FBECDBFA8
:1023900010913102FE0133968CE2DF011D928A9585
:1023A000E9F781E0898394E09A8322E02B8383E03C
:1023B0008D832E839F8320E4288795E099878A87E1
:1023C00086E08B8783E38C8787E08D8798E09F8703
:1023D00099E0998B99E19B8B92E49C8B35E23D8B44
:1023E0002E8B26E22F8B888F88E2898F80E18A8F5F
:1023F00089E28B8F8CED8C8F8EE28D8F88E88E8FAB
:102400008FE28F8F8DE288A380E389A327E32BA33C
:1024100020E92CA328E32DA39EA39CE39FA39FE880
:1024200098A79DE399A792E19AA79FE69BA78CA7FF
:102430008FEF8DA789ED8E8784E68AA361E0809176
:102440001F040E942E0461E080911F040E945C041E
:1024500060E0809120040E945C040FB7F8948091A2
:102460002E02811127C0EBE4F5E08491EFE5F5E061
:102470009491E82FF0E0EE0FFF1FE35DFA4FA59176
:10248000B491EC91E92321F461E08AE00E942E04EA
:1024900061E08AE00E945C048CB580618CBD8CB5E3
:1024A00080648CBD61E08DE00E945C0461E08BE0A3
:1024B0000E945C0480912E028F5F80932E020FBFDA
:1024C0000E948D046B017C014AEA6FE28DE194E089
:1024D0000E947E050E94C2086FE28DE194E00E9496
:1024E000B3058A3A59F00E948D046C197D098E0952
:1024F0009F09623371058105910530F30E948D04B7
:102500006C197D098E099F0962337105810591055A
:10251000E8F088E991E09F938F930E94C60A84E0D7
:102520000E94C5080F900F9087E091E0AE960FB61D
:10253000F894DEBF0FBECDBFDF91CF911F910F91F9
:10254000FF90EF90DF90CF900C94BD040E948D041B
:102550006B017C0145E56FE28DE194E00E947E0510
:102560000E94C2086FE28DE194E00E94B3058535B8
:1025700059F00E948D046C197D098E099F09623300
:1025800071058105910530F30E948D046C197D0958
:102590008E099F09623371058105910508F0B9CF55
:1025A00000E0E02FF0E0EE0FFF1F81E090E08C0FE5
:1025B0009D1FE80FF91F60816F3F39F041818DE168
:1025C00094E00E947E050F5FECCF61E08DE194E026
:1025D0000E9465066DE38DE194E00E94B305482FEB
:1025E0004E7F6DE38DE194E00E947E0560912504AD
:1025F0008DE194E00E94FD0561E08DE194E00E9490
:1026000065060E948D046B017C0167E28DE194E018
:102610000E94B30587FF58C00E948D046C197D0984
:102620008E099F09623371058105910508F071CF0C
:1026300080912104823098F4E82FF0E0EE0FFF1F24
:10264000E15FFE4F29EE34E031832083813009F4CD
:102650004AC080916900836080936900E89A8DE1A7
:1026600094E09093300280932F02109322048EEB1B
:1026700091E09F938F930E94C60A8091C10280616E
:102680008093C102809179028E7F809379028CEAD7
:1026900091E09F938F930E94C60A10927702109246
:1026A000780210927602109231021092220440E0D9
:1026B00069E38DE194E00E947E050F900F900F90EA
:1026C0000F9083E091E032CF0E948D046C197D0958
:1026D0008E099F09623371058105910508F09CCF31
:1026E0000E94C20892CF809169008C60809369003B
:1026F000E99AB5CF8EE891E09F938F930E94C60A26
:10270000E1ECF2E08081877F8F7E80831092BD02B2
:102710001092BE021092BF021092C0020E948D045D
:102720006093AD027093AE028093AF029093B002BB
:10273000109232021092330210923402109235023B
:102740000F900F9044E050E070E060E086E792E088
:102750000C942B1E1F920F920FB60F9211242F93E1
:102760003F934F935F936F937F938F939F93AF9319
:10277000BF93EF93FF938DE393E00E946C03FF916F
:10278000EF91BF91AF919F918F917F916F915F91E9
:102790004F913F912F910F900FBE0F901F90189562
:1027A0001F920F920FB60F9211242F938F939F9326
:1027B000EF93FF93E0914D03F0914E038081E09100
:1027C0005303F091540382FD1BC090818091560306
:1027D0008F5F8F7320915703821741F0E09156036A
:1027E000F0E0E35CFC4F958F80935603FF91EF91EF
:1027F0009F918F912F910F900FBE0F901F90189562
:102800008081F4CF1F920F920FB60F9211242F9355
:102810003F938F939F93AF93BF9380913503909194
:102820003603A0913703B09138033091340323E08D
:10283000230F2D3758F50196A11DB11D20933403A8
:102840008093350390933603A0933703B0933803F6
:102850008091390390913A03A0913B03B0913C03DE
:102860000196A11DB11D8093390390933A03A09363
:102870003B03B0933C03BF91AF919F918F913F91E8
:102880002F910F900FBE0F901F90189526E8230FE1
:102890000296A11DB11DD2CF1F920F920FB60F92BB
:1028A00011242F933F934F935F936F937F938F9355
:1028B0009F93AF93BF93EF93FF93E0911101F0913A
:1028C00012010995FF91EF91BF91AF919F918F9167
:1028D0007F916F915F914F913F912F910F900FBE1C
:1028E0000F901F9018951F920F920FB60F92112400
:1028F0002F933F934F935F936F937F938F939F9308
:10290000AF93BF93EF93FF93E0910F01F09110010C
:102910000995FF91EF91BF91AF919F918F917F9119
:102920006F915F914F913F912F910F900FBE0F903C
:102930001F9018951F920F920FB60F9211240F90AF
:102940000FBE0F901F9018953FB7F89480913903F0
:1029500090913A03A0913B03B0913C0326B5A89B0C
:1029600005C02F3F19F00196A11DB11D3FBFBA2F21
:10297000A92F982F8827BC01CD01620F711D811DE1
:10298000911D42E0660F771F881F991F4A95D1F766
:102990000895CF93DF93FC0110821182128214827A
:1029A00015821682DC0117968AE1ED0119928A954B
:1029B000E9F782E08383DF91CF910895EDE3F3E0BF
:1029C0001382128288EE93E0A0E0B0E084839583C6
:1029D000A683B78387E191E09183808385EC90E0C3
:1029E0009587848784EC90E09787868780EC90E0D9
:1029F000918B808B81EC90E0938B828B82EC90E0CA
:102A0000958B848B86EC90E0978B868B118E128E43
:102A1000138E148E89E294E00E94C914EDE1F4E073
:102A200089E291E0918380838AE0828382E08383DC
:102A3000848381E080931C0416829FE197838087C2
:102A40008FEF85838BEF93E00E94C9148AED93E0AA
:102A50000C94C914CF93DF93CDB7DEB76B970FB645
:102A6000F894DEBF0FBECDBF789484B5826084BD7C
:102A700084B5816084BD85B5826085BD85B5816082
:102A800085BD80916E00816080936E001092810000
:102A900080918100826080938100809181008160BB
:102AA000809381008091800081608093800080917C
:102AB000B10084608093B1008091B0008160809308
:102AC000B00080917A00846080937A0080917A00CF
:102AD000826080937A0080917A00816080937A008E
:102AE00080917A00806880937A001092C100A89546
:102AF00080E090E0892B11F00E940000E0914D03EE
:102B0000F0914E0382E08083E0914903F0914A0303
:102B10001082E0914B03F0914C0390E1908310926E
:102B20005503E0915103F091520386E08083E091D8
:102B30004F03F0915003808180618083E0914F03C7
:102B4000F0915003808188608083E0914F03F09181
:102B50005003808180688083E0914F03F09150039F
:102B600080818F7D80831F928FEF8F931F929F9321
:102B700089EE94E09F938F930E94C60A8091C702CA
:102B80008D7F8093C7020F900F900F900F900F9042
:102B90000F9080E090E0892B51F08CED94E09F93B2
:102BA0008F930E94C60A0E9400000F900F9010920F
:102BB000CD021092B6021092B502569A559A549AC6
:102BC0000E948D046B547109810991096093B102CF
:102BD0007093B2028093B3029093B4020E946D0886
:102BE00041E050E063E071E086EC92E00E942B1E31
:102BF0006FEF81E090E00E94531E8091C2028F78B7
:102C00008093C2021092B8021092B7028BE091E05A
:102C10000E94BD0488E59BE09093C5028093C402A6
:102C20001F921F921F921F9287EA94E09F938F93A7
:102C30000E94C60A0E948D040F900F900F900F9073
:102C40000F900F900E948D040E94B2040E94570DB5
:102C50001091C10212FB112710F90E94C208112322
:102C600089F31092DB031092DC038FEF8093E00373
:102C70008EE08093DF038091DE03807E836080930B
:102C8000DE0361E671E08AED93E00E94DA060E94BD
:102C9000580A0E94770C8FEC94E09F938F930E94C8
:102CA000C60A9091C1020F900F9092FB882780F97D
:102CB00092FD0E94D1051F928F9387EB94E09F9322
:102CC0008F930E94C60AA8950F900F900F900F90B7
:102CD0007DE1272E75E0372EE0E0CE2EE0E0DE2EFF
:102CE000BB24BA9454E0A52E60E0E62E60E0F62EF8
:102CF00080913303882351F01F928F933F922F923C
:102D00000E94C60A0F900F900F900F90809133038E
:102D10008F5F809333030E94C2088091CC02882386
:102D2000B1F00E948D044090C8025090C90260909A
:102D3000CA027090CB026419750986099709613639
:102D40007A4E8105910518F080E00E949A0A8DE381
:102D500093E00E945603892B09F405C18DE393E0AB
:102D60000E94340390913203933608F0BEC0E92FDD
:102D7000F0E0E253FD4F8A3009F0B2C010821092A9
:102D80002A041092290480912D048F7E80932D04B3
:102D9000AE01465E5F4F6BE771E08EEC92E00E9401
:102DA000701847E0842E912C10E0009709F42AC196
:102DB000153009F406C10E942B181230D1F078F4B6
:102DC0001130A1F080932B04AE01465E5F4F6BE79C
:102DD00071E090E080E00E9470181F5FE6CF133032
:102DE00091F0143079F780932E04EECF80932F0466
:102DF000EBCF4C0180912D04887F982D9770892B03
:102E000080932D04E1CF20912D04277F41E050E0F5
:102E1000892B11F450E040E0CA0133E0880F991F7C
:102E20003A95E1F7822BECCF913614F09755D8C044
:102E30009753D6C0813614F08755D9C08753D7C071
:102E400030912C0437702A3108F029E148E0249FA2
:102E5000C0011124832B80932C0480912D048F7149
:102E6000806C80932D0489E294E00E94A904482F8D
:102E700050E0BE016F5F7F4F80E394E00E94C41E6C
:102E80008091CD02811102C0A092CD020E946D08F6
:102E90001092320381E2E9E2F4E0ABEFB3E001909B
:102EA0000D928A95E1F78091FD03882309F18BEF5C
:102EB00093E00E94600C57C001900020E9F7E81BE6
:102EC000E250E80FF92FF11D20812D3011F02A304A
:102ED00009F41082BC0189E294E00E94DA06D0CFA6
:102EE00080839F5F9093320332CF109232032FCFB3
:102EF0008091FF0383FF17C091E2EBEFF3E0AAEDAF
:102F0000B3E001900D929A95E1F7877E80618093FE
:102F1000DE031092DB038091FC038093DC038AEDD7
:102F200093E00E94580A8091FF038770833009F074
:102F300040C080910004823059F51092DB0310925A
:102F4000DC03B092E0038093DF038091DE03807E98
:102F500083608093DE036BE571E08AED93E00E946D
:102F6000DA060E94580A0E94B2040E94570D80910E
:102F70003303815080933303E114F10409F4B8CE94
:102F80000E946203882309F4ABCE0E940000A8CE01
:102F9000853061F482E094E00E942B1821E00197D3
:102FA00009F020E0822F0E949A0ADDCF0E94850C52
:102FB000DACFC114D104B9F28BEF93E00E94000084
:102FC000D2CFFC0124E08216910409F075CF20E0F5
:102FD0009081992309F434CF9A330CF025CF905384
:102FE0009295907F81818A330CF024CF8053A1E0A9
:102FF000B0E0AC0FBD1FA20FB11D980F9C932F5FC7
:103000003296E6CF60E089E294E00E949D0415309C
:1030100009F436CF10923203A6CFEF920F931F938D
:10302000CF93DF93E80134E047FD34E1042E000C38
:10303000550B57FF03C0519541955109E32E022FBF
:10304000242FAE010E94401BCE01DF91CF911F9132
:103050000F91EF900895FC0188279927E89421911A
:103060002032E9F3293010F02E30C8F32B3241F032
:103070002D3239F4689404C00E94C618820F911D45
:10308000219120532A30C0F31EF4909581959F4FD3
:1030900008951F93FC0199278827BC01E89411919A
:1030A0001032E9F3193010F01E30C8F31B3251F022
:1030B0001D3249F4689406C00E94B118610F711D59
:1030C000811D911D119110531A30B0F33EF490956B
:1030D0008095709561957F4F8F4F9F4F1F910895F9
:1030E000FA01A191B081009719F41097E1F0CD0198
:1030F000DC01CD010D90002011F4C00113C0FB01D3
:103100002191222319F02015D9F7F3CFFB0121914A
:10311000201519F41E92119606C02223C1F70D90B6
:103120000020A1F7D001FA01A193B0830895BB2735
:103130004A3031F4992322F4BDE2909581959F4F56
:103140000C94F118BB272A3051F4992342F4BDE2C4
:1031500090958095709561957F4F8F4F9F4F0C9400
:10316000CF18592F482F372F262F660F771F881F0C
:10317000991F660F771F881F991F620F731F841F87
:10318000951F660F771F881F991F08957AE0979FF4
:10319000902D879F802D910D11240895BB27FA0152
:1031A000A62F6217710581059105330B30FB66F080
:1031B000AA27660F771F881F991FAA1FA21710F052
:1031C000A21B63953850A9F7A05DAA3308F0A95D4A
:1031D000A19336F7B111B1931082CA010C948D1DE1
:1031E000BB27FB015527AA27880F991FAA1FA417E1
:1031F00010F0A41B83955051B9F7A05DAA3308F0D5
:10320000A95DA193009779F7B111B1931192CB0108
:103210000C948D1DAEE0B0E0E0E1F9E10C94731E7A
:103220000D891E898F89988D2EE02C831A8309833E
:1032300097FF02C080E090E801979E838D83AE01E6
:10324000455E5F4F698D7A8DCE0101960E946619A9
:103250004D815E8157FD0AC02F8138854217530783
:103260000CF49A01020F131FF80110822E96E4E06D
:103270000C948F1EAEE0B0E0E0E4F9E10C94731E14
:103280008C01FA018EE08C831A83098377FF02C0D8
:1032900060E070E8615071097E836D83A901BF0110
:1032A000CE0101960E9466194D815E8157FD0AC0CC
:1032B0002F813885421753070CF49A01020F131F10
:1032C000F80110822E96E4E00C948F1EABE0B0E083
:1032D000ECE6F9E10C94651E7C013B018A01FC01DE
:1032E00017821682838181FFC8C1CE0101965C01DD
:1032F000F7019381F30193FD859193FF81913F0144
:10330000882309F453C1853239F493FD859193FFE5
:1033100081913F01853229F4B70190E00E949D1D03
:10332000E7CF912C212C312CFFE1F31538F08B32B3
:1033300011F190F4803209F1833229F137FC3CC05D
:1033400020ED280F2A3050F536FE20C08AE0989EE6
:10335000200D1124922E06C08D3291F0803371F72A
:10336000689430F8F30193FD859193FF81913F01BB
:103370008111DACF21C0689431F8689432F8F2CF25
:10338000689433F8EFCF689434F8ECCFEAE02E9EDF
:10339000200D1124222E689435F8E4CF8E3229F4C2
:1033A00036FC04C1689436F8DDCF8C3619F4689485
:1033B00037F8D8CF8836B1F2982F9F7D9554933047
:1033C000E0F08336A1F18337C1F1833509F063C0A2
:1033D0002801F2E04F0E511CF801C080D180692D08
:1033E00070E036FC02C06FEF7FEFC6010E94771DD0
:1033F0004C01689437F882010AC00C5F1F4FFFE34D
:10340000F98388248394912C6501E89437F833FE7E
:103410002DC0522C8114910471F5552009F468CF08
:10342000B70180E290E00E949D1D5A94F6CFF8010A
:10343000808189830E5F1F4FE4CF2801F2E04F0E99
:10344000511CF801C080D180692D70E036FC02C0AB
:103450006FEF7FEFC6010E94821D4C018201D5CF24
:10346000B70180E290E00E949D1D2A94281419045F
:1034700009F0B0F7CECFF60137FC859137FE819188
:103480006F01B70190E00E949D1D51105A94F1E028
:103490008F1A9108BFCF843619F0893609F077C0AA
:1034A000F80137FE6BC060817181828193810C5F6E
:1034B0001F4FF32DFF763F2E97FF09C09095809503
:1034C000709561957F4F8F4F9F4F689437F82AE032
:1034D00030E0A5010E94CD1DC82ECA188C2C432CAB
:1034E00036FE0CC0E89440F8C91440F434FE05C020
:1034F00032FC03C0F32DFE7E4F2E892C44FE95C076
:10350000FE01EC0DF11D8081803309F087C0242D70
:10351000297E422E842D8870582E43FC95C040FE93
:103520008FC09C2C821418F42C0C922C981844FEFA
:1035300091C0B70180E390E00E949D1D42FE09C04A
:1035400088E790E041FE02C088E590E0B7010E9464
:103550009D1DC91408F48AC0CA94D12C9FEFC91AC2
:10356000D90ACA0CDB1CF60182916F01B70190E009
:103570000E949D1DAC14BD04B1F74FCF60817181D5
:10358000072E000C880B990B0E5F1F4F92CFD32C88
:10359000E894D4F82AE030E0853739F1232D297FEB
:1035A000D22E8F3601F148F48835A9F0F7018681D3
:1035B00097812B96E2E10C94811E803749F0883781
:1035C000A9F7D4FE02C06894D2F820E130E00DC023
:1035D0006894D4F8F6CF34FE03C0822F8660D82ECC
:1035E00020E132E002C028E030E0F801D7FE0FC051
:1035F00060817181828193810C5F1F4FA5010E94C0
:10360000CD1DC82ECA183D2CE89437F867CF6081CD
:10361000718190E080E00E5F1F4FF0CF42FC02C04E
:10362000839478CF8394839475CF842D867809F41E
:1036300071CFF6CFB70180E290E00E949D1D839488
:103640008214C0F3512C73CF522C5818821408F4F2
:103650006ECFF8CF842D867809F47BCF8BE241FEC4
:1036600080E247FC8DE2B70190E071CFB70180E3C3
:1036700090E00E949D1D9A946CCF8FEF9FEF99CFA1
:10368000A9E0B0E0E6E4FBE10C946B1E6A01F22EC7
:10369000B02E102FFBE3AF2EA01608F41BE31F5F24
:1036A000012F27E0AE014F5F5F4F0E949F1CBC01BE
:1036B0008981982F9970913009F43FC09BE2E1FC19
:1036C00004C09E2D9170E0FC3AC05E2D5071E82F31
:1036D000E87083FF46C084E0911101C083E0EF2DC4
:1036E000E81B8F1508F0E0E0D6018E2F20E255236D
:1036F00051F1992329F0D6019C93C60101966C01E2
:1037000096012D5F3F4FE2FE24C08EE4D6018C93DC
:1037100091E411969C93119712968C93D9018E2F58
:1037200090E281111BC0E20FF32FF11D10828EEF8A
:103730009FEF2996ECE00C94871E9DE2C6CF90E2A5
:10374000C4CF2D9381508111FCCFCE0ED11CE0E06F
:10375000D0CF8EE6D6018C9391E6DBCF9D9381503E
:10376000E0CF482F447082FF3DC084E0911101C03A
:1037700083E08F1510F4EF2DE81BD6018E2F20E289
:10378000552309F1992329F0D6019C93C60101968E
:103790006C0196012D5F3F4FE2FE1BC089E4D6010C
:1037A0008C938EE411968C93119786E412968C93E9
:1037B000D9018E2F90E2882309F4B5CF9D938150D3
:1037C000FACF2D9381508111FCCFCE0ED11CE0E0B9
:1037D000D9CF89E6D6018C938EE611968C931197FA
:1037E00086E6E4CF9B0177FF02C030E020E0A1E055
:1037F000B0E0911102C0B0E0A0E0F9013196AE0F47
:10380000BF1F8B2C912CBB2009F461C05401EFEF3A
:10381000AE1ABE0AAA0DBB1DFA161B0619F014F04B
:103820004F2D4A1B511188C0E3FC59C07601A42FCB
:10383000B0E2A1114FC0C40ED11C992309F45BC0A2
:1038400040E0D6011196F60190836D01552309F4ED
:1038500048C0012F060F9A81582F507184FF03C072
:10386000913309F4015010160CF047C0093008F0EC
:1038700008E0EEE2FE2E5B01A01AB10885019194EA
:10388000819491082F3F320729F4D601FC92F6016A
:1038900031966F016217730794F1021713077CF5D5
:1038A000DB01A21BB30BAA24A394B12CAC0EBD1E4A
:1038B000AA0DBB1D11968C9121503109D60111968C
:1038C00028153905F4F0F60180836D01DBCFB12CAA
:1038D000A12CA0CFF701B1937F01A150AACF9111E4
:1038E000B0CFD601942F50E302C05D939150911157
:1038F000FCCFC40ED11C40E0ACCF01E0BACF80E3D6
:10390000DBCF6217730731F4963388F4953311F4E3
:10391000552369F0F6018083FD01842F90E2811127
:1039200008C0A40FB11D1C9290E080E002CF81E39B
:10393000F1CF91938150F3CF911183CF8ACF28306B
:1039400008F027E03327DA01990F311D87FD9160D8
:1039500000966105710539F432602E5F3D9330E3C6
:103960002A95E1F708959F3F30F080387105610591
:1039700009F03C5F3C5F3D93913008F08068911DF9
:10398000DF93CF931F930F93FF92EF92192F987F9E
:103990009695E92F96959695E90FFF27EE53FF4FE1
:1039A00099273327EE24FF24A701E7010590089407
:1039B000079428F4360FE71EF81E491F511D660FA5
:1039C000771F881F991F0694A1F70590079428F484
:1039D000E70EF81E491F561FC11D770F881F991F3C
:1039E000661F0694A1F70590079428F4F80E491F66
:1039F000561FC71FD11D880F991F661F771F06947A
:103A0000A1F70590079420F4490F561FC71FD81F30
:103A1000990F661F771F881F0694A9F78491109548
:103A2000177041F0D695C79557954795F794E79449
:103A30001A95C1F7E8E6F0E0689415901591359174
:103A40006591959105907FE27395E118F10A430B1A
:103A5000560BC90BD009C0F7E10CF11E431F561FCE
:103A6000C91FD01D7EF4703311F48A95E6CFE89417
:103A7000015030F0080F0AF40027021708F4202F35
:103A80002395022F7A3328F079E37D932A95E9F77D
:103A900010C07D932A9589F606949795679537957A
:103AA00017951794E118F10A430B560BC90BD0096F
:103AB00098F023957E9173957A3308F070E37C93A8
:103AC0002013B8F77E9170617D9330F0839571E398
:103AD0007D9370E32A95E1F71124EF90FF900F9109
:103AE0001F91CF91DF91992787FD90950895FC0153
:103AF0000590615070400110D8F7809590958E0F19
:103B00009F1F0895FC016150704001900110D8F78B
:103B1000809590958E0F9F1F0895DC01FC01672F03
:103B200071917723E1F7329704C07C916D93708394
:103B30006291AE17BF07C8F308950F931F93CF93F9
:103B4000DF93182F092FEB018B8181FD09C01FEF37
:103B50000FEF812F902FDF91CF911F910F9108953B
:103B600082FF14C02E813F818C819D8128173907E7
:103B70003CF4E881F981CF01019699838883108311
:103B80008E819F8101969F838E83E3CFE885F9859F
:103B9000812F0995892BA1F3DACFFA01AA272830C2
:103BA00051F1203181F1E8946F936E7F6E5F7F4F0A
:103BB0008F4F9F4FAF4FB1E03ED0B4E03CD0670F86
:103BC000781F891F9A1FA11D680F791F8A1F911DD9
:103BD000A11D6A0F711D811D911DA11D20D009F429
:103BE00068943F912AE0269F11243019305D31936B
:103BF000DEF6CF010895462F4770405D4193B3E054
:103C00000FD0C9F7F6CF462F4F70405D4A3318F0FA
:103C1000495D31FD4052419302D0A9F7EACFB4E0AB
:103C2000A6959795879577956795BA95C9F7009763
:103C30006105710508959B01AC010A2E0694579504
:103C4000479537952795BA95C9F7620F731F841F5B
:103C5000951FA01D0895DC01CB01FC01F999FECF51
:103C600006C0F2BDE1BDF89A319600B40D92415004
:103C70005040B8F70895F999FECF92BD81BDF89AEA
:103C8000992780B50895DC01A40FB51F415050401D
:103C900048F0CB01840F951F2E910E94541E415075
:103CA0005040D0F70895262FF999FECF92BD81BDDF
:103CB000F89A019700B4021639F01FBA20BD0FB66A
:103CC000F894FA9AF99A0FBE08952F923F924F9264
:103CD0005F926F927F928F929F92AF92BF92CF929C
:103CE000DF92EF92FF920F931F93CF93DF93CDB7A5
:103CF000DEB7CA1BDB0B0FB6F894DEBF0FBECDBF1D
:103D000009942A88398848885F846E847D848C84ED
:103D10009B84AA84B984C884DF80EE80FD800C81F6
:103D20001B81AA81B981CE0FD11D0FB6F894DEBFD9
:103D30000FBECDBFED010895A1E21A2EAA1BBB1B39
:103D4000FD010DC0AA1FBB1FEE1FFF1FA217B30767
:103D5000E407F50720F0A21BB30BE40BF50B661F7D
:103D6000771F881F991F1A9469F760957095809541
:103D700090959B01AC01BD01CF010895EE0FFF1F8F
:103D80000590F491E02D0994FB01DC0102C0019043
:103D90000D9241505040D8F70895FB01DC0141508D
:103DA000504048F001900D920020C9F701C01D92CB
:0C3DB00041505040E0F70895F894FFCF18
:103DBC00FFFFFF8C1147110811D4107A13B8119919
:103DCC00049904000000008E03F8022503DB03565F
:103DDC0003340348030000000054091705F404F2EF
:103DEC0008FD054C06A1091605D1071B0665069DA5
:103DFC0005BB07AC0720003C4E4F4E43453E004FE1
:103E0C004B004E41434B003F002100322E332E32EB
:103E1C000047617465776179207374617274757091
:0E3E2C0020636F6D706C6574652E003B0000A6
:00000001FF
